:020000040800F2
:1000000000100020B50000083D0100083D01000877
:100010003D0100083D0100083D0100083D010008C8
:100020003D0100083D0100083D0100083D010008B8
:100030003D0100083D0100083D0100083D010008A8
:100040003D0100083D0100083D0100083D01000898
:100050003D0100083D0100083D0100083D01000888
:100060003D0100083D0100083D0100083D01000878
:100070003D0100083D0100083D0100083D01000868
:100080003D0100083D0100083D0100083D01000858
:100090003D0100083D0100083D0100083D01000848
:1000A0003D0100083D0100083D0100083D01000838
:1000B0003D01000880B584B000AF1B4BFB601B4BBB
:1000C000BB601B4A194BD31A7B6009E0FB681A78A6
:1000D000BB681A70BB680133BB60FB680133FB600F
:1000E0007B685A1E9341DBB27A68013A7A60002B32
:1000F000ECD1104BBB60104A0E4BD31A7B6005E06D
:10010000BB6800221A70BB680133BB607B685A1E53
:100110009341DBB27A68013A7A60002BF0D100F0AB
:100120007FF8BD4604B080BD7002000800000020CA
:1001300000000020000000200000002080B500AF7B
:10014000FEE7C04680B582B000AF7860C0467B68ED
:100150005A1E9341DBB27A68013A7A60002BF6D1DD
:10016000BD4602B080BDC04680B500AF204B204ADE
:100170001168204A0A401A60C0461D4B1A68802345
:100180009B041340F9D11C4B1B4A126801210A43FE
:100190001A60194B184A126806218A431A60164BD6
:1001A000154A126810210A431A60144B134A116849
:1001B000134A0A401A60114B104A1268A0218903A1
:1001C0000A431A600D4B0D4A12688021C9010A4387
:1001D0001A60074B064A1268802149040A431A60D4
:1001E000064B064A126802210A431A60BD4680BDCA
:1001F00000100240FFFFFFFE0020024004100240FA
:10020000FFFFC3FF80B500AF044B044A1268802192
:1002100089020A431A60BD4680BDC04614100240E0
:1002200080B500AFFFF7A0FFFFF7ECFF9023DB05E1
:10023000802252051A600B4B0A4A12688021C901BC
:100240000A431A60084B181CFFF77CFF054B054A50
:100250001168064A0A401A60034B181CFFF772FF28
:10026000E9E7C04614000048A0860100FFBFFFFF79
:0400000508000000EF
:00000001FF
